:02000000001FDF
:02000100003FBE
:02000200005F9D
:02000300007F7C
:02000400009F5B
:0200050000BF3A
:0200060000DF19
:0200070000FFF8
:02000800011FD6
:02000900013FB5
:02000A00015F94
:02000B00017F73
:02000C0001FFF2
:02000D000000F1
:02000E000000F0
:02000F000000EF
:02001000021FCD
:02001100023FAC
:02001200025F8B
:02001300027F6A
:02001400029F49
:0200150002BF28
:0200160002DF07
:0200170002FFE6
:02001800031FC4
:020019000000E5
:02001A000000E4
:02001B000000E3
:02001C000000E2
:02001D000000E1
:02001E000000E0
:02001F000000DF
:02002000041FBB
:02002100043F9A
:02002200045F79
:02002300047F58
:02002400049F37
:0200250004BF16
:0200260004DFF5
:0200270004FFD4
:02002800051FB2
:020029000000D5
:02002A000000D4
:02002B000000D3
:02002C000000D2
:02002D000000D1
:02002E000000D0
:02002F000000CF
:02003000061FA9
:02003100063F88
:02003200065F67
:02003300067F46
:02003400069F25
:0200350006BF04
:0200360006DFE3
:0200370006FFC2
:02003800071FA0
:020039000000C5
:02003A000000C4
:02003B000000C3
:02003C000000C2
:02003D000000C1
:02003E000000C0
:02003F000000BF
:02004000001F9F
:02004100003F7E
:02004200005F5D
:02004300007F3C
:02004400009F1B
:0200450000BFFA
:0200460000DFD9
:0200470000FFB8
:02004800011F96
:02004900013F75
:02004A00015F54
:02004B00017F33
:02004C0001FFB2
:02004D000000B1
:02004E000000B0
:02004F000000AF
:02005000021F8D
:02005100023F6C
:02005200025F4B
:02005300027F2A
:02005400029F09
:0200550002BFE8
:0200560002DFC7
:0200570002FFA6
:02005800031F84
:020059000000A5
:02005A000000A4
:02005B000000A3
:02005C000000A2
:02005D000000A1
:02005E000000A0
:02005F0000009F
:02006000041F7B
:02006100043F5A
:02006200045F39
:02006300047F18
:02006400049FF7
:0200650004BFD6
:0200660004DFB5
:0200670004FF94
:02006800051F72
:02006900000095
:02006A00000094
:02006B00000093
:02006C00000092
:02006D00000091
:02006E00000090
:02006F0000008F
:02007000061F69
:02007100063F48
:02007200065F27
:02007300067F06
:02007400069FE5
:0200750006BFC4
:0200760006DFA3
:0200770006FF82
:02007800071F60
:02007900000085
:02007A00000084
:02007B00000083
:02007C00000082
:02007D00000081
:02007E00000080
:02007F0000007F
:02008000001F5F
:02008100003F3E
:02008200005F1D
:02008300007FFC
:02008400009FDB
:0200850000BFBA
:0200860000DF99
:0200870000FF78
:02008800011F56
:02008900013F35
:02008A00015F14
:02008B00017FF3
:02008C0001FF72
:02008D00000071
:02008E00000070
:02008F0000006F
:02009000021F4D
:02009100023F2C
:02009200025F0B
:02009300027FEA
:02009400029FC9
:0200950002BFA8
:0200960002DF87
:0200970002FF66
:02009800031F44
:02009900000065
:02009A00000064
:02009B00000063
:02009C00000062
:02009D00000061
:02009E00000060
:02009F0000005F
:0200A000041F3B
:0200A100043F1A
:0200A200045FF9
:0200A300047FD8
:0200A400049FB7
:0200A50004BF96
:0200A60004DF75
:0200A70004FF54
:0200A800051F32
:0200A900000055
:0200AA00000054
:0200AB00000053
:0200AC00000052
:0200AD00000051
:0200AE00000050
:0200AF0000004F
:0200B000061F29
:0200B100063F08
:0200B200065FE7
:0200B300067FC6
:0200B400069FA5
:0200B50006BF84
:0200B60006DF63
:0200B70006FF42
:0200B800071F20
:0200B900000045
:0200BA00000044
:0200BB00000043
:0200BC00000042
:0200BD00000041
:0200BE00000040
:0200BF0000003F
:0200C000001F1F
:0200C100003FFE
:0200C200005FDD
:0200C300007FBC
:0200C400009F9B
:0200C50000BF7A
:0200C60000DF59
:0200C70000FF38
:0200C800011F16
:0200C900013FF5
:0200CA00015FD4
:0200CB00017FB3
:0200CC0001FF32
:0200CD00000031
:0200CE00000030
:0200CF0000002F
:0200D000021F0D
:0200D100023FEC
:0200D200025FCB
:0200D300027FAA
:0200D400029F89
:0200D50002BF68
:0200D60002DF47
:0200D70002FF26
:0200D800031F04
:0200D900000025
:0200DA00000024
:0200DB00000023
:0200DC00000022
:0200DD00000021
:0200DE00000020
:0200DF0000001F
:0200E000041FFB
:0200E100043FDA
:0200E200045FB9
:0200E300047F98
:0200E400049F77
:0200E50004BF56
:0200E60004DF35
:0200E70004FF14
:0200E800051FF2
:0200E900000015
:0200EA00000014
:0200EB00000013
:0200EC00000012
:0200ED00000011
:0200EE00000010
:0200EF0000000F
:0200F000061FE9
:0200F100063FC8
:0200F200065FA7
:0200F300067F86
:0200F400069F65
:0200F50006BF44
:0200F60006DF23
:0200F70006FF02
:0200F800071FE0
:0200F900000005
:0200FA00000004
:0200FB00000003
:0200FC00000002
:0200FD00000001
:0200FE00000000
:0200FF000000FF
:02010000001FDE
:02010100003FBD
:02010200005F9C
:02010300007F7B
:02010400009F5A
:0201050000BF39
:0201060000DF18
:0201070000FFF7
:02010800011FD5
:02010900013FB4
:02010A00015F93
:02010B00017F72
:02010C0001FFF1
:02010D000000F0
:02010E000000EF
:02010F000000EE
:02011000021FCC
:02011100023FAB
:02011200025F8A
:02011300027F69
:02011400029F48
:0201150002BF27
:0201160002DF06
:0201170002FFE5
:02011800031FC3
:020119000000E4
:02011A000000E3
:02011B000000E2
:02011C000000E1
:02011D000000E0
:02011E000000DF
:02011F000000DE
:02012000041FBA
:02012100043F99
:02012200045F78
:02012300047F57
:02012400049F36
:0201250004BF15
:0201260004DFF4
:0201270004FFD3
:02012800051FB1
:020129000000D4
:02012A000000D3
:02012B000000D2
:02012C000000D1
:02012D000000D0
:02012E000000CF
:02012F000000CE
:02013000061FA8
:02013100063F87
:02013200065F66
:02013300067F45
:02013400069F24
:0201350006BF03
:0201360006DFE2
:0201370006FFC1
:02013800071F9F
:020139000000C4
:02013A000000C3
:02013B000000C2
:02013C000000C1
:02013D000000C0
:02013E000000BF
:02013F000000BE
:02014000001F9E
:02014100003F7D
:02014200005F5C
:02014300007F3B
:02014400009F1A
:0201450000BFF9
:0201460000DFD8
:0201470000FFB7
:02014800011F95
:02014900013F74
:02014A00015F53
:02014B00017F32
:02014C0001FFB1
:02014D000000B0
:02014E000000AF
:02014F000000AE
:02015000021F8C
:02015100023F6B
:02015200025F4A
:02015300027F29
:02015400029F08
:0201550002BFE7
:0201560002DFC6
:0201570002FFA5
:02015800031F83
:020159000000A4
:02015A000000A3
:02015B000000A2
:02015C000000A1
:02015D000000A0
:02015E0000009F
:02015F0000009E
:02016000041F7A
:02016100043F59
:02016200045F38
:02016300047F17
:02016400049FF6
:0201650004BFD5
:0201660004DFB4
:0201670004FF93
:02016800051F71
:02016900000094
:02016A00000093
:02016B00000092
:02016C00000091
:02016D00000090
:02016E0000008F
:02016F0000008E
:02017000061F68
:02017100063F47
:02017200065F26
:02017300067F05
:02017400069FE4
:0201750006BFC3
:0201760006DFA2
:0201770006FF81
:02017800071F5F
:02017900000084
:02017A00000083
:02017B00000082
:02017C00000081
:02017D00000080
:02017E0000007F
:02017F0000007E
:02018000001F5E
:02018100003F3D
:02018200005F1C
:02018300007FFB
:02018400009FDA
:0201850000BFB9
:0201860000DF98
:0201870000FF77
:02018800011F55
:02018900013F34
:02018A00015F13
:02018B00017FF2
:02018C0001FF71
:02018D00033F2E
:02018E0000006F
:02018F0000006E
:02019000021F4C
:02019100023F2B
:02019200025F0A
:02019300027FE9
:02019400029FC8
:0201950002BFA7
:0201960002DF86
:0201970002FF65
:02019800031F43
:02019900000064
:02019A00000063
:02019B00000062
:02019C00000061
:02019D00000060
:02019E0000005F
:02019F0000005E
:0201A000041F3A
:0201A100043F19
:0201A200045FF8
:0201A300047FD7
:0201A400049FB6
:0201A50004BF95
:0201A60004DF74
:0201A70004FF53
:0201A800051F31
:0201A900000054
:0201AA00000053
:0201AB00000052
:0201AC00000051
:0201AD00000050
:0201AE0000004F
:0201AF0000004E
:0201B000061F28
:0201B100063F07
:0201B200065FE6
:0201B300067FC5
:0201B400069FA4
:0201B50006BF83
:0201B60006DF62
:0201B70006FF41
:0201B800071F1F
:0201B900000044
:0201BA00000043
:0201BB00000042
:0201BC00000041
:0201BD00000040
:0201BE0000003F
:0201BF0000003E
:0201C000001F1E
:0201C100003FFD
:0201C200005FDC
:0201C300007FBB
:0201C400009F9A
:0201C50000BF79
:0201C60000DF58
:0201C70000FF37
:0201C800011F15
:0201C900013FF4
:0201CA00015FD3
:0201CB00017FB2
:0201CC0001FF31
:0201CD00000030
:0201CE0000002F
:0201CF0000002E
:0201D000021F0C
:0201D100023FEB
:0201D200025FCA
:0201D300027FA9
:0201D400029F88
:0201D50002BF67
:0201D60002DF46
:0201D70002FF25
:0201D800031F03
:0201D900000024
:0201DA00000023
:0201DB00000022
:0201DC00000021
:0201DD00000020
:0201DE0000001F
:0201DF0000001E
:0201E000041FFA
:0201E100043FD9
:0201E200045FB8
:0201E300047F97
:0201E400049F76
:0201E50004BF55
:0201E60004DF34
:0201E70004FF13
:0201E800051FF1
:0201E900000014
:0201EA00000013
:0201EB00000012
:0201EC00000011
:0201ED00000010
:0201EE0000000F
:0201EF0000000E
:0201F000061FE8
:0201F100063FC7
:0201F200065FA6
:0201F300067F85
:0201F400069F64
:0201F50006BF43
:0201F60006DF22
:0201F70006FF01
:0201F800071FDF
:0201F900000004
:0201FA00000003
:0201FB00000002
:0201FC00000001
:0201FD00000000
:0201FE000000FF
:0201FF000000FE
:00000001FF
