:02000000001FDF
:02000100005F9E
:02000200009F5D
:0200030000DF1C
:02000400011FDA
:02000500015F99
:02000600019F58
:0200070001DF17
:02000800003FB7
:02000900007F76
:02000A0000BF35
:02000B0000FFF4
:02000C000000F2
:02000D000000F1
:02000E000000F0
:02000F000000EF
:02001000021FCD
:02001100025F8C
:02001200029F4B
:0200130002DF0A
:02001400031FC8
:02001500035F87
:02001600039F46
:0200170003DF05
:02001800023FA5
:020019000000E5
:02001A000000E4
:02001B000000E3
:02001C000000E2
:02001D000000E1
:02001E000000E0
:02001F000000DF
:02002000041FBB
:02002100045F7A
:02002200049F39
:0200230004DFF8
:02002400051FB6
:02002500055F75
:02002600059F34
:0200270005DFF3
:02002800043F93
:020029000000D5
:02002A000000D4
:02002B000000D3
:02002C000000D2
:02002D000000D1
:02002E000000D0
:02002F000000CF
:02003000061FA9
:02003100065F68
:02003200069F27
:0200330006DFE6
:02003400071FA4
:02003500075F63
:02003600079F22
:0200370007DFE1
:02003800063F81
:020039000000C5
:02003A0004BF01
:02003B000000C3
:02003C000000C2
:02003D000000C1
:02003E000000C0
:02003F000000BF
:00000001FF
